:020000040800F2
:100000000008002079150008411300084313000878
:1000100000000000000000000000000000000000E0
:100020000000000000000000000000004513000870
:1000300000000000000000004713000849130008FA
:10004000F9150008F9150008F9150008F915000858
:10005000F915000869130008F91500087313000862
:1000600000000000F9150008F9150008F91500084E
:1000700089130008F915000800000000F9150008B0
:100080000000000000000000000000000000000070
:10009000F91500080000000000000000F915000834
:1000A00000000000F915000800000000000000003A
:1000B000F91500088B130008000000000000000084
:1000C00010B5064C2378002B07D1054B002B02D02E
:1000D000044800E000BF0123237010BD140000207D
:1000E000000000000C1F0008044B10B5002B03D0CB
:1000F0000349044800E000BF10BDC04600000000F6
:10010000180000200C1F000802780B78002A03D08A
:10011000013001319A42F7D0D01A70470023C25CF7
:100120000133002AFBD1581E70470000002243080B
:100130008B4274D303098B425FD3030A8B4244D3AF
:10014000030B8B4228D3030C8B420DD3FF220902F1
:1001500012BA030C8B4202D31212090265D0030BB0
:100160008B4219D300E0090AC30B8B4201D3CB03A6
:10017000C01A5241830B8B4201D38B03C01A5241E8
:10018000430B8B4201D34B03C01A5241030B8B42EA
:1001900001D30B03C01A5241C30A8B4201D3CB02D5
:1001A000C01A5241830A8B4201D38B02C01A5241BA
:1001B000430A8B4201D34B02C01A5241030A8B42BD
:1001C00001D30B02C01A5241CDD2C3098B4201D3D5
:1001D000CB01C01A524183098B4201D38B01C01A53
:1001E000524143098B4201D34B01C01A52410309CA
:1001F0008B4201D30B01C01A5241C3088B4201D379
:10020000CB00C01A524183088B4201D38B00C01A25
:10021000524143088B4201D34B00C01A5241411A4C
:1002200000D20146524110467047FFE701B5002059
:1002300000F0F0F802BDC0460029F7D076E770471D
:1002400003460B437FD4002243088B4274D3030937
:100250008B425FD3030A8B4244D3030B8B4228D3D8
:10026000030C8B420DD3FF22090212BA030C8B42FE
:1002700002D31212090265D0030B8B4219D300E09E
:10028000090AC30B8B4201D3CB03C01A5241830B23
:100290008B4201D38B03C01A5241430B8B4201D3D3
:1002A0004B03C01A5241030B8B4201D30B03C01AFC
:1002B0005241C30A8B4201D3CB02C01A5241830A76
:1002C0008B4201D38B02C01A5241430A8B4201D3A5
:1002D0004B02C01A5241030A8B4201D30B02C01ACF
:1002E0005241CDD2C3098B4201D3CB01C01A524136
:1002F00083098B4201D38B01C01A524143098B42BF
:1003000001D34B01C01A524103098B4201D30B01A7
:10031000C01A5241C3088B4201D3CB00C01A5241CC
:1003200083088B4201D38B00C01A524143088B4291
:1003300001D34B00C01A5241411A00D2014652412A
:10034000104670475DE0CA0F00D04942031000D349
:100350004042534000229C4603098B422DD3030A9E
:100360008B4212D3FC22890112BA030A8B420CD3AE
:10037000890192118B4208D3890192118B4204D3D7
:1003800089013AD0921100E08909C3098B4201D357
:10039000CB01C01A524183098B4201D38B01C01A91
:1003A000524143098B4201D34B01C01A5241030908
:1003B0008B4201D30B01C01A5241C3088B4201D3B7
:1003C000CB00C01A524183088B4201D38B00C01A64
:1003D0005241D9D243088B4201D34B00C01A52413B
:1003E000411A00D20146634652415B10104601D3C8
:1003F0004042002B00D54942704763465B1000D352
:10040000404201B5002000F005F802BD0029F8D0F7
:1004100016E770477047C046002B11D1002A0FD154
:10042000002900D1002802D00021C943080007B4E8
:10043000024802A14018029003BDC046D9FFFFFF49
:1004400003B4684601B5029800F006F8019B9E4689
:1004500002B00CBC7047C046F0B557464E46454604
:10046000DE46E0B504000D009246994683B08B420B
:1004700030D82DD04946504600F0D8F82900060063
:10048000200000F0D3F8331A9846203B9B4633D423
:100490005A465346934042461F00534693401E001F
:1004A000AF423AD8AF4200D178E05B46A41BBD41D1
:1004B000002B00DA75E00022002300920193012353
:1004C0005A4693400193012342469340009328E00B
:1004D0008242CFD900220023009201930C9B002B73
:1004E00001D01C605D600098019903B0F0BCBB4670
:1004F000B246A946A046F0BD424620239B1A52466A
:10050000DA40414613004A468A40170042461F43DC
:10051000534693401E00AF42C4D9002200230092EC
:1005200001934346002BD9D0FB0772081A43464675
:100530007B080EE0AB4201D1A2420CD8A41A9D4127
:10054000012024196D410021013E24184D41002E47
:1005500006D0AB42EED9013E24196D41002EF8D1F0
:10056000009801995B4600196941002B24DB2B00A0
:100570005A464446D3402A00E2401C005B46150020
:10058000002B2ADB26009E40330026004746BE4053
:100590003200801A9941009001919FE7A342BCD894
:1005A00083E74246202300219B1A002200910192FA
:1005B0000122DA40019286E7424620239B1A2A0054
:1005C00046469A402300F340444613432A00E24043
:1005D0001C005B461500002BD4DA42462F00202376
:1005E000260097409B1ADE403B003343CDE7C046D0
:1005F0001C2101231B04984201D3000C10391B0A53
:10060000984201D3000A08391B09984201D3000916
:10061000043902A2105C40187047C046040302026D
:1006200001010101000000000000000010B50029D8
:1006300003D1FFF7DDFF203002E00800FFF7D8FF0D
:1006400010BDC04601220A4B5968114201D1002059
:100650007047EFF3108172B60648D8600648D8603C
:1006600081F310885B681342F1D02020F0E7C04688
:1006700000200240EFCDAB89050403020123024AAA
:1006800051680B4353607047002002400023074825
:10069000074A084959180988C15207495918098851
:1006A000D1520233182BF4D17047C0464A000020C3
:1006B00030000020100008083000080810B50400C1
:1006C000FFF7C0FF022C0CD11549164A164B5218E1
:1006D0001649D05A188002338B42FAD1FFF7CEFF69
:1006E00010BD032C0AD11249124A134B5218134958
:1006F000D05A188002338B42FAD1EFE7042CEDD1A7
:100700000023084C0B48084A195B9A1811800A4AC2
:10071000195A9A1802331180182BF4D1DEE7C0461B
:10072000F0FFF7F74A00002010000808280008082A
:10073000D0FFF7F730000020300008084800080814
:10074000F0B587B002AC00232500260004270193F2
:100750000120244B24499A680A4002439A609A680F
:1007600002420CD09A683A4209D19A680A403A4348
:100770009A601A683A42FCD01A6C2A801F609A6804
:1007800028880A40022111439960019B02351818FC
:1007900083B20120019300F07BFF06ABAB42D7D1BF
:1007A000002301332000DBB2023421001A00082AA2
:1007B0000ED1082BF5D173883088C018B389C018C2
:1007C000F389C018019B181A80B2800807B0F0BDE9
:1007D00005880F88BD4201D207800D800132D2B258
:1007E0000231E4E700240140E8FFFF7FF0B5002478
:1007F0001E002500270085B0019003910292019808
:10080000FFF78CFCB8420ED82A00002300201249C2
:10081000029D0855AA421AD13000621C01F064FB07
:10082000200005B0F0BD019B039ADB5D934207D128
:10083000029B6A1C9D4208D0002415000137DEE7A8
:10084000054A13552A000134F7E70123DEE7002BA0
:10085000E2D11C003370E3E76200002070B50400B1
:10086000FFF75CFC0023834203D0E25C303A092AA4
:1008700007D9012200200A25E318591E9C4202D103
:1008800070BD0133EFE70B78303B53436A43C01828
:100890000B00F2E7F7B50400104E102200213000E3
:1008A00001F02BFB002320000193019D0A216B1C0A
:1008B00007000193FFF7C4FC092FF6DC0A2720008C
:1008C0003900FFF7A3FD3031200071553900FFF7E3
:1008D000B7FC0400013DF2D23000FEBD62000020F2
:1008E000F8B54B4C2C21230000220500FFF77EFFBA
:1008F00020004849FFF708FC002818D1464800F0BE
:1009000079FD464C250018352088FFF7C3FF444881
:1009100000F070FD434800F06DFD02340A2000F045
:10092000B7FEAC42F0D1404800F064FDF8BD2000B5
:100930003E49FFF7E9FB002815D13D4800F05AFD7C
:100940003C4C250018352088FFF7A4FF344800F000
:1009500051FD344800F04EFD02340A2000F098FEAC
:10096000A542F0D1DFE720003349FFF7CDFB002897
:100970001CD10126294F320023002C212800FFF72B
:1009800035FF2000FFF76AFF0136388002370D2E51
:10099000F1D10220FFF792FE642000F079FE274893
:1009A00000F028FD642000F073FEBFE7200024491A
:1009B000FFF7AAFB002817D101261E4F32002300A3
:1009C0002C212800FFF712FF2000FFF747FF013618
:1009D000388002370D2EF1D10320FFF76FFE64201F
:1009E00000F056FE1748DBE720001749FFF78CFBA5
:1009F000002803D10122154B1A7097E720001449F3
:100A0000FFF782FB002800D090E7104B18708DE7AD
:100A100072000020241F00082F1F00084A00002039
:100A2000851F0008620000205A1F0008361F0008BA
:100A30003F1F000830000020441F0008501F00081E
:100A40005D1F0008671F0008721F0008B200002029
:100A5000791F0008002270B5254B264D1A70264CD0
:100A60002B7802281DD12549934214D10A78002AF7
:100A700011D1082301222370204B1A70A02040219D
:100A8000C00500F023FF002818D101221C4B1A706A
:100A90001A4B187012E022780132227000220A707C
:100AA0000AE0102814D1002B03D1144A1278002A2E
:100AB000DFD00121134A1170002BDFD02278531EA2
:100AC000DBB2FD2B0FD90123237001232B7070BDE6
:100AD0002028F1D10949002B02D10A78002AC8D078
:100AE0002278013AD9E70C2AEFD90C23ECE7C0466B
:100AF000030000200100002004000020020000206C
:100B0000BB000020B900002001232C4A10B5116859
:100B10009943116011681942FCD12948294902689A
:100B2000294C1140802212010A43026022681343BB
:100B30002360042322681A42FCD06368234A1A40C7
:100B400080235B01134363600123226D13432365FC
:100B50000223226D1A42FCD0F022E3689343E36043
:100B6000E3681B4A1340E360E3681A4A1340032218
:100B7000E360E36893431A00012313430C22E3600C
:100B8000E3681340042BFBD1134801F083F90320E1
:100B900000F034FD002801D072B6FEE7E36C0F4A86
:100BA0001A4080231B011343E364E36C0C4A1A4090
:100BB0008023DB021343E36410BDC04600200240E3
:100BC00000700040FFE7FFFF00100240FFE0FFFF62
:100BD000FFF8FFFFFFC7FFFF0024F400FFF3FFFF54
:100BE000FFFFF3FF10B500F065FD8023064A5B05AB
:100BF000916B01200B439363022100F0A3FF00F0EF
:100C000061FDFFF781FF10BD00100240F0B599B003
:100C100000F018FD0848094B094A036000234261AF
:100C20004360836003624362836200F085FE051EB9
:100C300008D072B6FEE7C046BC000020007C004031
:100C4000FFFF00000126022700F0ACFBFFF75CFF6E
:100C50002900142212A801F050F9A020E54C2A0026
:100C6000E36AE5493343E362E36AC0053340029334
:100C7000029BE36A3B43E362E36A3B400393039BCB
:100C800000F02AFEA020DC4B12A9C0051293149597
:100C90001595139600F06EFD7223A0201293842305
:100CA00012A99B03C0051393149600F063FD2A005C
:100CB0000321052000F00EFD052000F035FD2A007F
:100CC0000321072000F006FD072000F02DFD29007C
:100CD00018220CA801F011F980211595A26BC90208
:100CE0000A43A263A36B06220B400593059BE36AAC
:100CF00012A93B43E362E36AC0483B400493049B70
:100D0000402312933D3B139714931792169600F0CD
:100D10008BFF80230622129312A97D3BB7481397BD
:100D2000149315951792169600F07EFFC721B44FC5
:100D300089007B58B34A1A4080231B0213437B501F
:100D400080239B053B6096239B010C930C230D9500
:100D50000E950F951195AC4D0CA92800109300F03D
:100D6000B5FF2B6833432B60EFF3108286F31088B6
:100D7000202329680B432B6082F31088EFF3108245
:100D800086F31088082329680B432B6082F31088B0
:100D9000EFF3108286F31088042329680B432B603D
:100DA00082F31088802180238903DB03EA690A42E9
:100DB000FCD0EA691A42F9D08025142200210CA83F
:100DC00001F09BF81022002108A801F096F81022EB
:100DD000002114A801F091F8636BAD002B4363630D
:100DE000636B12A92B400793079B0223E26A834897
:100DF0001A43E262E26A12931A4006920133069A9B
:100E0000139300F011FFC322FF219200BB587F4CC7
:100E10008B43BB5080235B013B60A36A0CA91D433D
:100E20008023A56200255B0220000D930C950E9592
:100E30000F95109500F0DEFE0722012780266369DA
:100E40007349134363612369033ABB432361E36836
:100E500070489343E3600B68360603400B60636899
:100E600008A993436360636804329343636020007E
:100E7000089609950A950B9500F0A0FEA368664AAE
:100E800066491A4080235B051343A360A2680A40A9
:100E90001743A760A3680B401E43A660A368002BFE
:100EA000FCDBC824FFF7F2FB00217B205C4B5D4A92
:100EB000A4001D88002D00D118801588002D00D1B8
:100EC00014800131023302320C29F2D100239A2717
:100ED00080240193BF00A40000F0B2FA524D002814
:100EE00006D02B78002B3FD000F0B0FAFFF7F8FCCB
:100EF0002B78002B38D00020FFF722FC494B010053
:100F00001A880190002382420AD2464A013310888F
:100F1000884200D3E3E05088884200D2DFE0DBB2B1
:100F2000424A390013703E4A5B00D25A404800F0F2
:100F300059FD404B1A78D3B2022A00D1D6E0032BD8
:100F400000D1DBE0012B0CD1A02000222100C00544
:100F500000F0C2FC00228021A020C900C00500F0E2
:100F6000BBFC0022344B1A70344B1B78002B11D081
:100F7000314E3378002B0DD0314B294A1B78390084
:100F8000013B5B00D25A2A4800F02CFD002333704D
:100F9000FFF728FE00F028FA2A4B1B68C01A092820
:100FA0009AD9294E3388192B11D9284B1B78002B3D
:100FB0000BD0274800F01EFA0198FFF76BFC25487C
:100FC00000F018FA244800F015FA002333801B4E75
:100FD0003378002B00D1E8E0204B1B78002B00D1A8
:100FE000C9E01F490B88632B00D8DEE01D4A1E4E66
:100FF00013783BE00010024001060000000400509E
:1010000000E100E0FF00FFFF004800400024014035
:1010100008270140FFFFFFFDE8FFFF6FE8FFFF7FAC
:101020004A00002030000020B300002048000020CB
:10103000BC00002000000020020000200100002071
:1010400004000020F0000020B6000020B2000020C4
:10105000811F0008620000205A1F0008BB0000200A
:10106000B4000020B8000020BA000020052B47D9AA
:1010700000231370874A337013700B80864B1A78E5
:10108000864B002A0BD01A780132D2B21A701A7825
:10109000032A01D901221A7000217F4A11701A789F
:1010A000D3B2022A00D1DFE0032B00D1E4E0012B10
:1010B0000CD1A02000222100C00500F00DFC002270
:1010C0008021A020C900C00500F006FC01232A7879
:1010D0005340734A13700022724B1A807FE0013331
:1010E00002320C2B00D012E7013B19E70022A020AE
:1010F0002100C00500F0F0FB01222CE70122F6E7F9
:101100000133137001233278534033702FD0664B74
:10111000664A1B783900013B5B00D25A644800F0F4
:1011200061FCA02021003278C00500F0D5FB8021B1
:10113000A0203278C900C00500F0CEFB00225D4B34
:101140001A80544B1B78002B04D05A4A1388013361
:101150009BB213802B78002B04D0574A138801339D
:101160009BB2138000F040F9544B1860B4E650482D
:1011700000F0D8FCD5E7A0200221C00500F0A6FBB6
:1011800000280BD1A0202021C00500F09FFB0028E3
:1011900004D14B4B4B4A1B78002B1CD03378002BCF
:1011A00003D03C4B1B78002B09D03E4B1A88002AF9
:1011B00015D01A88FA239B009A4210D25EE7A0202D
:1011C0000221C00500F082FB00283ED13C4B1B7879
:1011D000002BEAD1334A138801339BB21380394B79
:1011E0001A881A88C82A16D90126354A167000228C
:1011F0001A802A7872402A7040D0A0203200310034
:10120000C00500F069FB284B1A782F4B1A7000F0CC
:10121000EBF82A4B1860234E3388962332885B0004
:101220009A428ED90122264B21481A7000F07AFC8E
:101230000023264A338013701B4A137000F0D4F841
:101240001E4B1860FFF7CEFC7BE7A0202021C005D5
:1012500000F03CFB0028B9D0A0201021C00500F010
:1012600035FB0028B2D0A0E70022A0202100C00555
:1012700000F032FB012223E70122F6E7A020310033
:10128000C00500F029FB104B1A78074B1A70044B6D
:101290001E70BCE7BB000020B90000200000002049
:1012A00002000020EE000020040000204A00002080
:1012B000BC000020B4000020B6000020F000002098
:1012C00003000020EC0000200500002001000020A9
:1012D0000122054B596B0A435A638022996B5205D0
:1012E0000A439A637047C0460010024010B50400DC
:1012F00086B01422002101A800F0FFFD0E4B2268E9
:101300009A4217D180220D4B1206996BA0200A43F6
:101310009A630122D96AC0051143D962DB6A01A927
:1013200013400093009B802301937E3B0293059220
:1013300000F020FA06B010BD007C00400010024012
:10134000FEE7FEE770477047064A10B51388002B8A
:1013500003D01388013B9BB2138000F01BF800F010
:1013600085F910BDF400002010B5022000F0BAFA93
:1013700010BD10B5102000F0B5FA202000F0B2FA30
:10138000402000F0AFFA10BD704710B500F068F8CB
:1013900010BD7047024A1368013313607047C0469E
:1013A000F8000020FA210D4B10B518688900FEF7EF
:1013B000BDFE802302385B0498420ED2C021084A49
:1013C000090650600748036A1B021B0A0B430362AD
:1013D000002393600733136010BDFEE70800002070
:1013E00010E000E000ED00E0014B18687047C046D7
:1013F000F80000200E4B1A78002AFCD10D4A10602C
:1014000001221A700C4B7F32D9691142FCD00122A3
:101410000A490A7001789962EFF3108182F310880B
:1014200018683F3202431A6081F310887047C04643
:1014300045010020400100200048004044010020F8
:10144000014B1878C0B27047FC0000200022024B0C
:1014500002481A707047C046FC000020FD000020C2
:10146000F8B540273A4CE3693B4231D0EFF31082A4
:10147000012383F31088202123688B43236082F3A8
:101480001088344B1D78344B1E683000FEF746FE42
:10149000802385420FD10022304B27621A70EFF370
:1014A0001082012383F3108821681F330B432360CC
:1014B00082F31088F8BDE2691A42FCD0254A6B1C01
:1014C0001370735DA3624023E2691A42FCD0E6E721
:1014D000E3699B0632D50823626A23628023D2B275
:1014E0005B02E1691942FCD18023DB03E169194207
:1014F000FCD01B4B19783F2901D9002119701948DC
:101500000478002C04D10D2A12D101230370D1E7F5
:10151000012C0DD10A2A0BD100211A78124D01702D
:10152000A954124D01322A70114A19701470C1E782
:101530001978481C18700C4B5A54BBE780220D4B8D
:101540009205DA67BFF34F8FBFF36F8FB2E7C046E4
:1015500000480040440100204001002045010020D7
:101560003D0100203E010020FD0000203F01002041
:10157000FC00002004E100E01348854613480168A0
:10158000090E134A914205D11248134901601348CC
:101590001349016013481449144A002302E0D45847
:1015A000C4500433C4188C42F9D3114A114C00239F
:1015B00001E013600432A242FBD3FFF7EAFE00F021
:1015C0006FFCFFF723FBFEE700080020040000008B
:1015D0001F00000034100240010000000000014024
:1015E000000000000000002014000020B81F0008C8
:1015F000140000204C010020FEE7000070B505003B
:10160000FA200D4B80001978FEF790FD0B4B01007E
:101610001868FEF78BFD00F093F804000120002C01
:1016200009D1032D07D802382200290000F052F812
:101630002000034B1D6070BD0C000020080000203E
:10164000100000204023084A10B5116803200B4306
:101650001360FFF7D3FF041E03D1FFF739FE20000C
:1016600010BD0124FBE7C04600200240034A044BA2
:1016700011681B785B1813607047C0464801002052
:101680000C000020014B18687047C046480100203C
:1016900070B50400FFF7F6FF0500631C02D0044B91
:1016A0001B78E418FFF7EEFF401BA042FAD370BD91
:1016B0000C0000200221024A13688B43136070471C
:1016C00010E000E00223024A11680B4313607047E8
:1016D00010E000E030B5FF2503242A000440E400B8
:1016E000A24089012940D243A140C3B200280ADBAD
:1016F000C0240B4B80088000C018A40003591A4076
:101700001143015130BD0F200340083B05489B08A1
:101710009B001B18D86902401143D961F2E7C0460B
:1017200000E100E000ED00E0002805DB1F23184089
:101730001E3B8340014A13607047C04600E100E051
:101740008022431E5204012093420DD2C021074A39
:1017500007485360036A09061B021B0A0B43036216
:1017600000200723906013607047C04610E000E03F
:1017700000ED00E00023F0B585B00A681400DC40FD
:1017800001D105B0F0BD012514009D402C4001940D
:101790002A4200D18DE04A685E00944603226446E6
:1017A00022400324B440E4430294541E012C2AD85E
:1017B0008768029C2740CC68B4403C4384604468FE
:1017C0000127AC432500644624093C409C402C433F
:1017D0004460C568029C25408C68B4402C43C460BA
:1017E000022A12D1DC080725A4000419276A0394F1
:1017F0000F241D40AD00AC40A7430C69AC4027430B
:10180000039C276201E0032AE3D10468029DB240F1
:1018100025402C0014430460C0246246A4022242E6
:1018200047D00125244CA027626BFF052A43626341
:10183000224A9C08A400A4180F2202351D40AD00C6
:10184000AA40A66896430022B84208D01C4F013235
:10185000B84204D01B4F0132B84200D00432AA4033
:1018600067463243A260184A019C1668019DE44312
:101870003543FF0301D4350025406746156056689F
:10188000019D3543BF0301D43500254067465560AF
:101890009668019D3543FF0201D435002540674617
:1018A0009560D568019E2E43BF0201D425402E00CD
:1018B000D660013361E7C0460010024000000140DD
:1018C0000004005000080050000401400069084076
:1018D000431E9841C0B27047002A01D08161704711
:1018E0008162FCE7044B10B55A69104202D058617E
:1018F000FFF7B0F810BDC046000401400C4B70B5B6
:1019000005000C0018680B49FEF710FCFA239B0039
:101910004343296800200325013B002B00D1280008
:101920000A682240A24201D0002BF5D170BDC0460A
:1019300008000020204E0000F8B504000120002C13
:1019400042D025002E352B78DAB2002B05D12300AA
:101950002D3320001A70FFF7C9FC02232B70266874
:101960006168F368A06A012903D0802212049042C2
:1019700001D11E2293436269174FBA4201D0174F1B
:101980003B40174F1F400B00BC46A76803433B4337
:10199000276A3B43676A3B4367463B43002914D1B0
:1019A000E169276939430B438021090488420ED03D
:1019B00009498A4204D0A1690A43E1690A431343F1
:1019C000F360012300202B70F8BD0129ECD1E16800
:1019D000206901430B43EBE7FFFF00003F1FFFFFC0
:1019E000FEF119FFF8B50400260002232E363370ED
:1019F0002368080015001149DA6801270A40102100
:101A0000DA601A693A431A61596098612000FFF759
:101A100075FF032801D10320F8BD082123682000A9
:101A200059605D61FFF76AFF0328F4D00423226840
:101A3000002011690B4313613770EDE7FFFFEFFFE3
:101A4000F0B5040085B072B600220368324E0192F0
:101A5000B34205D1314AD56CC0221203154001951D
:101A60009A680292DA68586903929F69B3420BD16F
:101A70002A498A6A94468022654612062A438A6267
:101A80008A6A520052088A6202003A4337D0B3424F
:101A900004D12249224DCA6C2A40CA64002810D0C1
:101AA000012219690A431A61082158612000FFF7D1
:101AB00025FF032802D123002E3318700822236843
:101AC0005A60002F11D001222368200019690A43AF
:101AD0001A6110219F61FFF711FF032802D1230033
:101AE0002E331870102223685A602368B34206D13F
:101AF0000A4A0B49D36C019D0B401D43D56401215B
:101B000023681A698A431A61029A9A60039ADA6012
:101B100062B605B0F0BDC046007C00400010024037
:101B2000FFFFF3FF10B5040002232E342370FFF7EC
:101B300087FF2378D8B2032B02D001230020237023
:101B400010BD0000194BF0B5194A1E680500802031
:101B5000176A34000122800004403A40064205D052
:101B6000002A03D01868134E304018600326186806
:101B7000B0432843042518600F48066935430561C2
:101B800001290ED130BF04250169A9430161002C50
:101B900006D0002A04D08022196892000A431A60F5
:101BA000F0BD40BF20BF20BFEDE7C0460070004041
:101BB00000000140FFFDFFFF00ED00E08268030030
:101BC00030B5012014000440024210D18D684A68EB
:101BD000D8682A43CD6809682A43054D2840024346
:101BE0002000DA601A69920092080A431A6130BD37
:101BF000C73FFFFF8368020030B501201C0004408E
:101C000003420ED14D680B68D0682B438D682B437F
:101C1000CD6809692B430B430249014020000B4367
:101C2000D36030BD3CC2FEFFF7B5002302000C6854
:101C300000932000009BD84000D1FEBD0120009BF6
:101C4000984023000340044231D0486803250190A6
:101C5000180058434543019EED43771E012F0BD8D2
:101C60008F68966847432E40374397605768CE6821
:101C7000A74374433C4354600C69D76844432F40E6
:101C80003C43D460019C022C0BD14F69FF2B11D82F
:101C900004000F26444366437C43136AB343234343
:101CA0001362019C136860432B4003431360009B45
:101CB0000133BCE70F261B0A5B435B435E437B4358
:101CC000546AB4431C435462EBE700000268F8B561
:101CD0000123150004000E001D401A4201D001200E
:101CE000F8BD4B68C96802680B4331690B4313495F
:101CF0000A40134303604368114A1340B268134318
:101D0000436083680F4A1340726913438360C020A5
:101D1000000100F089F80028E1D03268002ADED006
:101D20002900070E06025008801979412B00FEF7A2
:101D300073FB0003000BE0602800D1E7F3E9FFEF3D
:101D4000FFCFFFFFFFFCFFFF024B18684007C00FEB
:101D50007047C04600100240024B1868C006C00F12
:101D60007047C04600100240034B044ADB681B0664
:101D70001B0FD35CD840704700100240871F00083B
:101D8000034B044ADB685B055B0FD35CD8407047AC
:101D900000100240971F00080C2210B51D4CE3688C
:101DA0001340082B33D00BD8002B01D0042B22D0AA
:101DB0008020636800021B045B0F0133984023E01E
:101DC0000C2BF5D1E368DB031FD4FFF7C5FF431EDF
:101DD0009841114B40421840104BC018E368104A1C
:101DE000E1689B021B0FD35C0902890F5843013144
:101DF000FEF79CF908E0FFF7AFFF431E9841064B42
:101E000040421840054BC01810BD0648E6E705489B
:101E1000FAE7C0460010024000E548FF0024F40045
:101E20009F1F000800127A00174A10B5D36C1840A3
:101E300080231B0198420AD0C0231B01984214D072
:101E40008023DB00984215D1FFF7A6FF10BDFFF7F6
:101E50007BFF00280CD0FFF77FFF431E98410B4B00
:101E6000404218400A4BC018F0E7136D9B0508D498
:101E70000020EBE7FFF790FFFFF776FFFFF780FF0B
:101E8000E4E780200002E1E70010024000E548FF9F
:101E90000024F400014B18607047C0460800002081
:101EA00070B500260C4D0D4C641BA410A64209D140
:101EB000002600F02BF80A4D0A4C641BA410A64221
:101EC00005D170BDB300EB5898470136EEE7B3007B
:101ED000EB5898470136F2E7B01F0008B01F000822
:101EE000B01F0008B41F0008002310B59A4200D1AB
:101EF00010BDCC5CC4540133F8E703008218934250
:101F000000D1704719700133F9E70000F8B5C046F9
:101F1000F8BC08BC9E467047F8B5C046F8BC08BC83
:041F20009E46704722
:101F24003A524541444C4556454C003A4C45564579
:101F34004C003A524541444C5558003A4C555800CF
:101F44003A57524954454C4556454C003A41434B47
:101F54002C4C4556454C0D0A003A57524954454CB1
:101F64005558003A41434B2C4C55580D0A003A4CF5
:101F740055584F4E003A4C55584F4646003A434444
:101F8400532C0000000000000000000102030406BE
:101F94000708090000000001020304030406080CFA
:041FA40010182030C1
:081FA800B0E4FF7F010000001E
:041FB000E90000083C
:041FB400C100000860
:101FB80001010101080800000000200001000000E4
:041FC8000400000011
:040000050800157961
:00000001FF
